{
  "_format": "hh-sol-artifact-1",
  "contractName": "MerkleDistributor",
  "sourceName": "contracts/MerkleDistributor.sol",
  "abi": [
    {
      "inputs": [
        {
          "internalType": "address",
          "name": "_token",
          "type": "address"
        },
        {
          "internalType": "bytes32",
          "name": "_merkleRoot",
          "type": "bytes32"
        }
      ],
      "stateMutability": "nonpayable",
      "type": "constructor"
    },
    {
      "anonymous": false,
      "inputs": [
        {
          "indexed": true,
          "internalType": "address",
          "name": "_from",
          "type": "address"
        },
        {
          "indexed": false,
          "internalType": "uint256",
          "name": "_amount",
          "type": "uint256"
        }
      ],
      "name": "Claimed",
      "type": "event"
    },
    {
      "inputs": [
        {
          "internalType": "bytes32[]",
          "name": "merkleProof",
          "type": "bytes32[]"
        },
        {
          "internalType": "uint256",
          "name": "_amount",
          "type": "uint256"
        },
        {
          "internalType": "address",
          "name": "_receiver",
          "type": "address"
        }
      ],
      "name": "claim",
      "outputs": [],
      "stateMutability": "nonpayable",
      "type": "function"
    },
    {
      "inputs": [],
      "name": "merkleRoot",
      "outputs": [
        {
          "internalType": "bytes32",
          "name": "",
          "type": "bytes32"
        }
      ],
      "stateMutability": "view",
      "type": "function"
    },
    {
      "inputs": [],
      "name": "token",
      "outputs": [
        {
          "internalType": "address",
          "name": "",
          "type": "address"
        }
      ],
      "stateMutability": "view",
      "type": "function"
    }
  ],
  "bytecode": "0x60c060405234801561001057600080fd5b50604051610b83380380610b838339818101604052810190610032919061010e565b8173ffffffffffffffffffffffffffffffffffffffff1660808173ffffffffffffffffffffffffffffffffffffffff16815250508060a08181525050505061014e565b600080fd5b600073ffffffffffffffffffffffffffffffffffffffff82169050919050565b60006100a58261007a565b9050919050565b6100b58161009a565b81146100c057600080fd5b50565b6000815190506100d2816100ac565b92915050565b6000819050919050565b6100eb816100d8565b81146100f657600080fd5b50565b600081519050610108816100e2565b92915050565b6000806040838503121561012557610124610075565b5b6000610133858286016100c3565b9250506020610144858286016100f9565b9150509250929050565b60805160a051610a036101806000396000818160a001526101b701526000818161026101526103930152610a036000f3fe608060405234801561001057600080fd5b50600436106100415760003560e01c80632eb4a7ab146100465780633fdc76f714610064578063fc0c546a14610080575b600080fd5b61004e61009e565b60405161005b919061047d565b60405180910390f35b61007e6004803603810190610079919061059b565b6100c2565b005b610088610391565b604051610095919061061e565b60405180910390f35b7f000000000000000000000000000000000000000000000000000000000000000081565b60008060008373ffffffffffffffffffffffffffffffffffffffff1673ffffffffffffffffffffffffffffffffffffffff1681526020019081526020016000205414610143576040517f08c379a000000000000000000000000000000000000000000000000000000000815260040161013a906106bc565b60405180910390fd5b60008183604051602001610158929190610745565b6040516020818303038152906040528051906020012090506101dc858580806020026020016040519081016040528093929190818152602001838360200280828437600081840152601f19601f820116905080830192505050505050507f0000000000000000000000000000000000000000000000000000000000000000836103b5565b61021b576040517f08c379a0000000000000000000000000000000000000000000000000000000008152600401610212906107bd565b60405180910390fd5b60016000808473ffffffffffffffffffffffffffffffffffffffff1673ffffffffffffffffffffffffffffffffffffffff168152602001908152602001600020819055507f000000000000000000000000000000000000000000000000000000000000000073ffffffffffffffffffffffffffffffffffffffff1663a9059cbb83856040518363ffffffff1660e01b81526004016102ba9291906107ec565b6020604051808303816000875af11580156102d9573d6000803e3d6000fd5b505050506040513d601f19601f820116820180604052508101906102fd919061084d565b61033c576040517f08c379a0000000000000000000000000000000000000000000000000000000008152600401610333906108ec565b60405180910390fd5b8173ffffffffffffffffffffffffffffffffffffffff167fd8138f8a3f377c5259ca548e70e4c2de94f129f5a11036a15b69513cba2b426a84604051610382919061090c565b60405180910390a25050505050565b7f000000000000000000000000000000000000000000000000000000000000000081565b6000826103c285846103cc565b1490509392505050565b60008082905060005b845181101561041757610402828683815181106103f5576103f4610927565b5b6020026020010151610422565b9150808061040f90610985565b9150506103d5565b508091505092915050565b600081831061043a57610435828461044d565b610445565b610444838361044d565b5b905092915050565b600082600052816020526040600020905092915050565b6000819050919050565b61047781610464565b82525050565b6000602082019050610492600083018461046e565b92915050565b600080fd5b600080fd5b600080fd5b600080fd5b600080fd5b60008083601f8401126104c7576104c66104a2565b5b8235905067ffffffffffffffff8111156104e4576104e36104a7565b5b602083019150836020820283011115610500576104ff6104ac565b5b9250929050565b6000819050919050565b61051a81610507565b811461052557600080fd5b50565b60008135905061053781610511565b92915050565b600073ffffffffffffffffffffffffffffffffffffffff82169050919050565b60006105688261053d565b9050919050565b6105788161055d565b811461058357600080fd5b50565b6000813590506105958161056f565b92915050565b600080600080606085870312156105b5576105b4610498565b5b600085013567ffffffffffffffff8111156105d3576105d261049d565b5b6105df878288016104b1565b945094505060206105f287828801610528565b925050604061060387828801610586565b91505092959194509250565b6106188161055d565b82525050565b6000602082019050610633600083018461060f565b92915050565b600082825260208201905092915050565b7f4d65726b6c654469737472696275746f723a2044726f7020616c72656164792060008201527f636c61696d656400000000000000000000000000000000000000000000000000602082015250565b60006106a6602783610639565b91506106b18261064a565b604082019050919050565b600060208201905081810360008301526106d581610699565b9050919050565b60008160601b9050919050565b60006106f4826106dc565b9050919050565b6000610706826106e9565b9050919050565b61071e6107198261055d565b6106fb565b82525050565b6000819050919050565b61073f61073a82610507565b610724565b82525050565b6000610751828561070d565b601482019150610761828461072e565b6020820191508190509392505050565b7f4d65726b6c654469737472696275746f723a20496e76616c69642070726f6f66600082015250565b60006107a7602083610639565b91506107b282610771565b602082019050919050565b600060208201905081810360008301526107d68161079a565b9050919050565b6107e681610507565b82525050565b6000604082019050610801600083018561060f565b61080e60208301846107dd565b9392505050565b60008115159050919050565b61082a81610815565b811461083557600080fd5b50565b60008151905061084781610821565b92915050565b60006020828403121561086357610862610498565b5b600061087184828501610838565b91505092915050565b7f4d65726b6c654469737472696275746f723a205472616e73666572206661696c60008201527f6564000000000000000000000000000000000000000000000000000000000000602082015250565b60006108d6602283610639565b91506108e18261087a565b604082019050919050565b60006020820190508181036000830152610905816108c9565b9050919050565b600060208201905061092160008301846107dd565b92915050565b7f4e487b7100000000000000000000000000000000000000000000000000000000600052603260045260246000fd5b7f4e487b7100000000000000000000000000000000000000000000000000000000600052601160045260246000fd5b600061099082610507565b91507fffffffffffffffffffffffffffffffffffffffffffffffffffffffffffffffff82036109c2576109c1610956565b5b60018201905091905056fea26469706673582212201f0c2f8310ea6552329e3b8666d79e951d917c09a6061c0de60fca8994cdb61364736f6c63430008110033",
  "linkReferences": {},
  "deployedLinkReferences": {}
}